:1000000010C022C021C020C01FC01EC01DC01CC007
:100010001BC01AC019C018C017C016C015C014C024
:1000200013C011241FBECFE5D2E0DEBFCDBF10E06C
:10003000A0E6B0E0E6E2F1E002C005900D92A23841
:10004000B107D9F760D06DC0DBCF8BBB84E085BB37
:1000500000C000C015BA85E88A95F1F70000089540
:100060008BBBA89AA998AA9A00C000C0AA9885E854
:100070008A95F1F7000008958FEF8ABB84BBAA9898
:100080008FEC97E00197F1F700C0000088E3DDDF17
:100090008CE0DBDF81E0D9DF8FEC97E00197F1F7AF
:1000A00000C0000086E0D1DF0895CF93DF9300D039
:1000B000CDB7DEB790E8998390EC9A83FE01E60F06
:1000C000F11D81509081890FC0DF85E88A95F1F795
:1000D00000000F900F90DF91CF9108950F931F9321
:1000E000CF93FC018081882351F08F01C0E0B8DFFD
:1000F000CF5FF801EC0FF11D80818111F8CFCF9116
:100100001F910F910895B8DF61E081E0CEDF80E6B6
:1001100090E0E4DF62E081E0C8DF81E790E0DEDFCD
:06012000F3CFF894FFCFBD
:1001260049204C6F76652050726F636573736F72EA
:10013600002053797374656D2044657369676E3A60
:0201460029008E
:00000001FF
