S00F0000435F6C61625F322E73726563B3
S113000013C01AC019C018C017C016C015C014C038
S113001013C012C011C010C00FC00EC00DC00CC060
S11300200BC00C140421222011241FBECFE5D2E002
S1130030DEBFCDBF02D06EC0E3CF8FEF87BB88BBDE
S113004003E210E0C4E2D0E0A6E2B0E021E030E058
S113005080E090E003C001962F5F3F4F813091050F
S113006011F545E050E0F8016491E62FE095E8BB16
S1130070FFEF61EE74E0F15060407040E1F700C0C2
S11300800000FE016491E62FE095E8BBFFEF61EE0E
S113009074E0F15060407040E1F700C0000041504E
S11300A0510909F7D8CF8430910501F585E090E036
S11300B0FD012491209528BBFFEF21EE34E0F1509F
S11300C020403040E1F700C00000E7E2F0E0249176
S11300D0209528BBFFEF21EE34E0F1502040304062
S11300E0E1F700C00000019719F7B0CFFC01EE5D05
S11300F0FF4FE491E095E8BB4FEF53ED60E34150CF
S113010050406040E1F700C00000253031050CF498
S10B0110A2CF9CCFF894FFCFAD
S9030000FC
