:020000020000FC
:1000000000C00FE50DBF02E00EBF0FEF07BB08BB3E
:100010001DD0912F2BD0FCCF00EF01BB8FE00FE064
:1000200002BB00B30827E9F70FEF94E08894079527
:10003000802F02BB10B3012721F024D010B3012779
:1000400021F4082F9A9599F7EFCF0895E5DF90E016
:10005000E6EAF0E0C895002D011731F0319693954E
:100060009031C1F710E20895192F089500E008BB00
:1000700010D00FEF08BB0DD0903009F493959A95EE
:10008000A9F7089550E46FEF6A95F1F75A95E1F7F3
:10009000089542E05FEF6FEF6A95F1F75A95E1F747
:1000A0004A95D1F70895E7EEDEBEEDDDBDEBDBBB93
:0600B0007E7D7B77B7D7CF
:00000001FF
