:1000000010C022C021C020C01FC01EC01DC01CC007
:100010001BC01AC019C018C017C016C015C014C024
:1000200013C011241FBECFE5D2E0DEBFCDBF10E06C
:10003000A0E6B0E0E4E6F1E002C005900D92A8373A
:10004000B107D9F77ED08CC0DBCF8FE082BB80B305
:100050008F30E9F740E850E020E030E0CA01022E9E
:1000600002C0959587950A94E2F7809582BB90B37C
:10007000891719F090B3891306C02F5F3F4F2430C2
:10008000310561F7E9CF892F0895DFDF909168008E
:10009000891741F0E9E6F0E021E030E09191891321
:1000A00005C002C020E030E0822F08952F5F3F4F4F
:1000B0002031310599F780E108958FE097E20197AB
:1000C000F1F700C000008091600085BB2CE231E0B8
:1000D00081E090E011C0EFE0F7E23197F1F700C066
:1000E0000000FC01E05AFF4F408145BB019688307B
:1000F000910511F480E090E02150310961F70895F5
:100100008FE99FE00197F1F700C000008091670040
:1001100085BB2CE231E086E090E00FC0EFE9FFE024
:100120003197F1F700C00000FC01E05AFF4F408119
:1001300045BB019711F487E090E02150310971F738
:10014000089515BA8FEF84BB12BA80EF81BB9DDF93
:100150008B3011F4D5DFFBCF8F30C9F7AEDFF7CF8F
:04016000F894FFCF41
:10016400080C040602030109E7EEDEBEEDDDBDEB7B
:08017400DBBB7E7D7B77B7D772
:00000001FF
