:1000000010C022C021C020C01FC01EC01DC01CC007
:100010001BC01AC019C018C017C016C015C014C024
:1000200013C011241FBECFE5D2E0DEBFCDBF10E06C
:10003000A0E6B0E0E0E0F1E002C005900D92A0374C
:10004000B107D9F73AD05AC0DBCF8FE082BB80B37B
:100050008F30E9F740E850E020E030E0CA01022E9E
:1000600002C0959587950A94E2F7809582BB90B37C
:10007000891719F090B3891306C02F5F3F4F2430C2
:10008000310561F7E9CF892F0895DFDF9091600096
:10009000891741F0E1E6F0E021E030E09191891329
:1000A00005C002C020E030E0822F08952F5F3F4F4F
:1000B0002031310599F780E1089518BA8FEF87BB99
:1000C00012BA80EF81BBCFEFE0DF8823E9F3C8BB32
:1000D0002FEF30E792E0215030409040E1F700C030
:1000E000000018BA2FEF30E792E0215030409040E6
:1000F000E1F700C00000815051F7E6CFF894FFCF40
:10010000E7EEDEBEEDDDBDEBDBBB7E7D7B77B7D7FB
:00000001FF
